{
  "address": "0x2ad1e3eE3d5c2BC14ab3E884cE81EcaCa46Eb08C",
  "abi": [
    {
      "inputs": [
        {
          "internalType": "string",
          "name": "svg",
          "type": "string"
        }
      ],
      "stateMutability": "nonpayable",
      "type": "constructor"
    },
    {
      "anonymous": false,
      "inputs": [
        {
          "indexed": true,
          "internalType": "address",
          "name": "owner",
          "type": "address"
        },
        {
          "indexed": true,
          "internalType": "address",
          "name": "approved",
          "type": "address"
        },
        {
          "indexed": true,
          "internalType": "uint256",
          "name": "tokenId",
          "type": "uint256"
        }
      ],
      "name": "Approval",
      "type": "event"
    },
    {
      "anonymous": false,
      "inputs": [
        {
          "indexed": true,
          "internalType": "address",
          "name": "owner",
          "type": "address"
        },
        {
          "indexed": true,
          "internalType": "address",
          "name": "operator",
          "type": "address"
        },
        {
          "indexed": false,
          "internalType": "bool",
          "name": "approved",
          "type": "bool"
        }
      ],
      "name": "ApprovalForAll",
      "type": "event"
    },
    {
      "anonymous": false,
      "inputs": [
        {
          "indexed": false,
          "internalType": "uint256",
          "name": "tokenCounter",
          "type": "uint256"
        },
        {
          "indexed": false,
          "internalType": "address",
          "name": "owner",
          "type": "address"
        }
      ],
      "name": "CreatedNft",
      "type": "event"
    },
    {
      "anonymous": false,
      "inputs": [
        {
          "indexed": true,
          "internalType": "address",
          "name": "from",
          "type": "address"
        },
        {
          "indexed": true,
          "internalType": "address",
          "name": "to",
          "type": "address"
        },
        {
          "indexed": true,
          "internalType": "uint256",
          "name": "tokenId",
          "type": "uint256"
        }
      ],
      "name": "Transfer",
      "type": "event"
    },
    {
      "inputs": [
        {
          "internalType": "address",
          "name": "to",
          "type": "address"
        },
        {
          "internalType": "uint256",
          "name": "tokenId",
          "type": "uint256"
        }
      ],
      "name": "approve",
      "outputs": [],
      "stateMutability": "nonpayable",
      "type": "function"
    },
    {
      "inputs": [
        {
          "internalType": "address",
          "name": "owner",
          "type": "address"
        }
      ],
      "name": "balanceOf",
      "outputs": [
        {
          "internalType": "uint256",
          "name": "",
          "type": "uint256"
        }
      ],
      "stateMutability": "view",
      "type": "function"
    },
    {
      "inputs": [
        {
          "internalType": "uint256",
          "name": "tokenId",
          "type": "uint256"
        }
      ],
      "name": "getApproved",
      "outputs": [
        {
          "internalType": "address",
          "name": "",
          "type": "address"
        }
      ],
      "stateMutability": "view",
      "type": "function"
    },
    {
      "inputs": [
        {
          "internalType": "address",
          "name": "owner",
          "type": "address"
        },
        {
          "internalType": "address",
          "name": "operator",
          "type": "address"
        }
      ],
      "name": "isApprovedForAll",
      "outputs": [
        {
          "internalType": "bool",
          "name": "",
          "type": "bool"
        }
      ],
      "stateMutability": "view",
      "type": "function"
    },
    {
      "inputs": [],
      "name": "mintNft",
      "outputs": [],
      "stateMutability": "nonpayable",
      "type": "function"
    },
    {
      "inputs": [],
      "name": "name",
      "outputs": [
        {
          "internalType": "string",
          "name": "",
          "type": "string"
        }
      ],
      "stateMutability": "view",
      "type": "function"
    },
    {
      "inputs": [
        {
          "internalType": "string",
          "name": "name",
          "type": "string"
        }
      ],
      "name": "name",
      "outputs": [
        {
          "internalType": "string",
          "name": "",
          "type": "string"
        }
      ],
      "stateMutability": "view",
      "type": "function"
    },
    {
      "inputs": [
        {
          "internalType": "uint256",
          "name": "tokenId",
          "type": "uint256"
        }
      ],
      "name": "ownerOf",
      "outputs": [
        {
          "internalType": "address",
          "name": "",
          "type": "address"
        }
      ],
      "stateMutability": "view",
      "type": "function"
    },
    {
      "inputs": [
        {
          "internalType": "address",
          "name": "from",
          "type": "address"
        },
        {
          "internalType": "address",
          "name": "to",
          "type": "address"
        },
        {
          "internalType": "uint256",
          "name": "tokenId",
          "type": "uint256"
        }
      ],
      "name": "safeTransferFrom",
      "outputs": [],
      "stateMutability": "nonpayable",
      "type": "function"
    },
    {
      "inputs": [
        {
          "internalType": "address",
          "name": "from",
          "type": "address"
        },
        {
          "internalType": "address",
          "name": "to",
          "type": "address"
        },
        {
          "internalType": "uint256",
          "name": "tokenId",
          "type": "uint256"
        },
        {
          "internalType": "bytes",
          "name": "data",
          "type": "bytes"
        }
      ],
      "name": "safeTransferFrom",
      "outputs": [],
      "stateMutability": "nonpayable",
      "type": "function"
    },
    {
      "inputs": [
        {
          "internalType": "address",
          "name": "operator",
          "type": "address"
        },
        {
          "internalType": "bool",
          "name": "approved",
          "type": "bool"
        }
      ],
      "name": "setApprovalForAll",
      "outputs": [],
      "stateMutability": "nonpayable",
      "type": "function"
    },
    {
      "inputs": [
        {
          "internalType": "bytes4",
          "name": "interfaceId",
          "type": "bytes4"
        }
      ],
      "name": "supportsInterface",
      "outputs": [
        {
          "internalType": "bool",
          "name": "",
          "type": "bool"
        }
      ],
      "stateMutability": "view",
      "type": "function"
    },
    {
      "inputs": [
        {
          "internalType": "string",
          "name": "svg",
          "type": "string"
        }
      ],
      "name": "svgToImageURI",
      "outputs": [
        {
          "internalType": "string",
          "name": "",
          "type": "string"
        }
      ],
      "stateMutability": "pure",
      "type": "function"
    },
    {
      "inputs": [],
      "name": "symbol",
      "outputs": [
        {
          "internalType": "string",
          "name": "",
          "type": "string"
        }
      ],
      "stateMutability": "view",
      "type": "function"
    },
    {
      "inputs": [
        {
          "internalType": "uint256",
          "name": "tokenId",
          "type": "uint256"
        }
      ],
      "name": "tokenURI",
      "outputs": [
        {
          "internalType": "string",
          "name": "",
          "type": "string"
        }
      ],
      "stateMutability": "view",
      "type": "function"
    },
    {
      "inputs": [
        {
          "internalType": "address",
          "name": "from",
          "type": "address"
        },
        {
          "internalType": "address",
          "name": "to",
          "type": "address"
        },
        {
          "internalType": "uint256",
          "name": "tokenId",
          "type": "uint256"
        }
      ],
      "name": "transferFrom",
      "outputs": [],
      "stateMutability": "nonpayable",
      "type": "function"
    }
  ],
  "transactionHash": "0xa16300f4c747f17b41905bea2641fcd659a507bb310f514e147319f5a51d73c1",
  "args": [
    "<svg viewBox=\"0 0 200 200\" width=\"400\"  height=\"400\" xmlns=\"http://www.w3.org/2000/svg\">\n  <circle cx=\"100\" cy=\"100\" fill=\"yellow\" r=\"78\" stroke=\"black\" stroke-width=\"3\"/>\n  <g class=\"eyes\">\n    <circle cx=\"61\" cy=\"82\" r=\"12\"/>\n    <circle cx=\"127\" cy=\"82\" r=\"12\"/>\n  </g>\n  <path d=\"m136.81 116.53c.69 26.17-64.11 42-81.52-.73\" style=\"fill:none; stroke: black; stroke-width: 3;\"/>\n</svg>"
  ],
  "numDeployments": 1,
  "solcInputHash": "e7297298f76934a4a632ebe65dea27db",
  "bytecode": "0x60806040523480156200001157600080fd5b50604051620033383803806200333883398181016040528101906200003791906200059a565b6040518060400160405280600681526020017f5376674e667400000000000000000000000000000000000000000000000000008152506040518060400160405280600381526020017f534e5400000000000000000000000000000000000000000000000000000000008152508160009080519060200190620000bb9291906200034d565b508060019080519060200190620000d49291906200034d565b5050506000600681905550620000f0816200010f60201b60201c565b60079080519060200190620001079291906200034d565b50506200083c565b606060006040518060400160405280601a81526020017f646174613a696d6167652f7376672b786d6c3b6261736536342c00000000000081525090506000620001848460405160200162000164919062000638565b604051602081830303815290604052620001b360201b62000bcc1760201c565b905081816040516020016200019b92919062000651565b60405160208183030381529060405292505050919050565b6060600082511415620001d85760405180602001604052806000815250905062000348565b6000604051806060016040528060408152602001620032f860409139905060006003600285516200020a9190620006b2565b6200021691906200073e565b600462000224919062000776565b90506000602082620002379190620006b2565b67ffffffffffffffff8111156200025357620002526200042c565b5b6040519080825280601f01601f191660200182016040528015620002865781602001600182028036833780820191505090505b509050818152600183018586518101602084015b8183101562000303576003830192508251603f8160121c1685015160f81b8252600182019150603f81600c1c1685015160f81b8252600182019150603f8160061c1685015160f81b8252600182019150603f811685015160f81b8252600182019150506200029a565b60038951066001811462000320576002811462000331576200033c565b613d3d60f01b60028303526200033c565b603d60f81b60018303525b50505050508093505050505b919050565b8280546200035b9062000806565b90600052602060002090601f0160209004810192826200037f5760008555620003cb565b82601f106200039a57805160ff1916838001178555620003cb565b82800160010185558215620003cb579182015b82811115620003ca578251825591602001919060010190620003ad565b5b509050620003da9190620003de565b5090565b5b80821115620003f9576000816000905550600101620003df565b5090565b6000604051905090565b600080fd5b600080fd5b600080fd5b600080fd5b6000601f19601f8301169050919050565b7f4e487b7100000000000000000000000000000000000000000000000000000000600052604160045260246000fd5b62000466826200041b565b810181811067ffffffffffffffff821117156200048857620004876200042c565b5b80604052505050565b60006200049d620003fd565b9050620004ab82826200045b565b919050565b600067ffffffffffffffff821115620004ce57620004cd6200042c565b5b620004d9826200041b565b9050602081019050919050565b60005b8381101562000506578082015181840152602081019050620004e9565b8381111562000516576000848401525b50505050565b6000620005336200052d84620004b0565b62000491565b90508281526020810184848401111562000552576200055162000416565b5b6200055f848285620004e6565b509392505050565b600082601f8301126200057f576200057e62000411565b5b8151620005918482602086016200051c565b91505092915050565b600060208284031215620005b357620005b262000407565b5b600082015167ffffffffffffffff811115620005d457620005d36200040c565b5b620005e28482850162000567565b91505092915050565b600081519050919050565b600081905092915050565b60006200060e82620005eb565b6200061a8185620005f6565b93506200062c818560208601620004e6565b80840191505092915050565b600062000646828462000601565b915081905092915050565b60006200065f828562000601565b91506200066d828462000601565b91508190509392505050565b6000819050919050565b7f4e487b7100000000000000000000000000000000000000000000000000000000600052601160045260246000fd5b6000620006bf8262000679565b9150620006cc8362000679565b9250827fffffffffffffffffffffffffffffffffffffffffffffffffffffffffffffffff0382111562000704576200070362000683565b5b828201905092915050565b7f4e487b7100000000000000000000000000000000000000000000000000000000600052601260045260246000fd5b60006200074b8262000679565b9150620007588362000679565b9250826200076b576200076a6200070f565b5b828204905092915050565b6000620007838262000679565b9150620007908362000679565b9250817fffffffffffffffffffffffffffffffffffffffffffffffffffffffffffffffff0483118215151615620007cc57620007cb62000683565b5b828202905092915050565b7f4e487b7100000000000000000000000000000000000000000000000000000000600052602260045260246000fd5b600060028204905060018216806200081f57607f821691505b60208210811415620008365762000835620007d7565b5b50919050565b612aac806200084c6000396000f3fe608060405234801561001057600080fd5b50600436106101005760003560e01c80636352211e11610097578063b88d4fde11610066578063b88d4fde146102d1578063c2229fea146102ed578063c87b56dd146102f7578063e985e9c51461032757610100565b80636352211e1461023757806370a082311461026757806395d89b4114610297578063a22cb465146102b557610100565b806323b872dd116100d357806323b872dd1461019f57806330d871c6146101bb57806342842e0e146101eb5780635b43bc991461020757610100565b806301ffc9a71461010557806306fdde0314610135578063081812fc14610153578063095ea7b314610183575b600080fd5b61011f600480360381019061011a91906118b8565b610357565b60405161012c9190611900565b60405180910390f35b61013d610439565b60405161014a91906119b4565b60405180910390f35b61016d60048036038101906101689190611a0c565b6104cb565b60405161017a9190611a7a565b60405180910390f35b61019d60048036038101906101989190611ac1565b610511565b005b6101b960048036038101906101b49190611b01565b610629565b005b6101d560048036038101906101d09190611c89565b610689565b6040516101e291906119b4565b60405180910390f35b61020560048036038101906102009190611b01565b61071c565b005b610221600480360381019061021c9190611c89565b61073c565b60405161022e91906119b4565b60405180910390f35b610251600480360381019061024c9190611a0c565b610746565b60405161025e9190611a7a565b60405180910390f35b610281600480360381019061027c9190611cd2565b6107f8565b60405161028e9190611d0e565b60405180910390f35b61029f6108b0565b6040516102ac91906119b4565b60405180910390f35b6102cf60048036038101906102ca9190611d55565b610942565b005b6102eb60048036038101906102e69190611e36565b610958565b005b6102f56109ba565b005b610311600480360381019061030c9190611a0c565b610a1d565b60405161031e91906119b4565b60405180910390f35b610341600480360381019061033c9190611eb9565b610b38565b60405161034e9190611900565b60405180910390f35b60007f80ac58cd000000000000000000000000000000000000000000000000000000007bffffffffffffffffffffffffffffffffffffffffffffffffffffffff1916827bffffffffffffffffffffffffffffffffffffffffffffffffffffffff1916148061042257507f5b5e139f000000000000000000000000000000000000000000000000000000007bffffffffffffffffffffffffffffffffffffffffffffffffffffffff1916827bffffffffffffffffffffffffffffffffffffffffffffffffffffffff1916145b80610432575061043182610d51565b5b9050919050565b60606000805461044890611f28565b80601f016020809104026020016040519081016040528092919081815260200182805461047490611f28565b80156104c15780601f10610496576101008083540402835291602001916104c1565b820191906000526020600020905b8154815290600101906020018083116104a457829003601f168201915b5050505050905090565b60006104d682610dbb565b6004600083815260200190815260200160002060009054906101000a900473ffffffffffffffffffffffffffffffffffffffff169050919050565b600061051c82610746565b90508073ffffffffffffffffffffffffffffffffffffffff168373ffffffffffffffffffffffffffffffffffffffff16141561058d576040517f08c379a000000000000000000000000000000000000000000000000000000000815260040161058490611fcc565b60405180910390fd5b8073ffffffffffffffffffffffffffffffffffffffff166105ac610e06565b73ffffffffffffffffffffffffffffffffffffffff1614806105db57506105da816105d5610e06565b610b38565b5b61061a576040517f08c379a00000000000000000000000000000000000000000000000000000000081526004016106119061205e565b60405180910390fd5b6106248383610e0e565b505050565b61063a610634610e06565b82610ec7565b610679576040517f08c379a0000000000000000000000000000000000000000000000000000000008152600401610670906120f0565b60405180910390fd5b610684838383610f5c565b505050565b606060006040518060400160405280601a81526020017f646174613a696d6167652f7376672b786d6c3b6261736536342c000000000000815250905060006106ef846040516020016106db919061214c565b604051602081830303815290604052610bcc565b90508181604051602001610704929190612163565b60405160208183030381529060405292505050919050565b61073783838360405180602001604052806000815250610958565b505050565b6060819050919050565b6000806002600084815260200190815260200160002060009054906101000a900473ffffffffffffffffffffffffffffffffffffffff169050600073ffffffffffffffffffffffffffffffffffffffff168173ffffffffffffffffffffffffffffffffffffffff1614156107ef576040517f08c379a00000000000000000000000000000000000000000000000000000000081526004016107e6906121d3565b60405180910390fd5b80915050919050565b60008073ffffffffffffffffffffffffffffffffffffffff168273ffffffffffffffffffffffffffffffffffffffff161415610869576040517f08c379a000000000000000000000000000000000000000000000000000000000815260040161086090612265565b60405180910390fd5b600360008373ffffffffffffffffffffffffffffffffffffffff1673ffffffffffffffffffffffffffffffffffffffff168152602001908152602001600020549050919050565b6060600180546108bf90611f28565b80601f01602080910402602001604051908101604052809291908181526020018280546108eb90611f28565b80156109385780601f1061090d57610100808354040283529160200191610938565b820191906000526020600020905b81548152906001019060200180831161091b57829003601f168201915b5050505050905090565b61095461094d610e06565b83836111c3565b5050565b610969610963610e06565b83610ec7565b6109a8576040517f08c379a000000000000000000000000000000000000000000000000000000000815260040161099f906120f0565b60405180910390fd5b6109b484848484611330565b50505050565b6109c63360065461138c565b6001600660008282546109d991906122b4565b925050819055507fb1ecb7ca0b8ce9a94e72ccf9b5494d9282a04aee7d10cd6c323dcc450d8d36eb60065433604051610a1392919061230a565b60405180910390a1565b6060610a28826113aa565b610a67576040517f08c379a0000000000000000000000000000000000000000000000000000000008152600401610a5e9061237f565b60405180910390fd5b60006040518060400160405280600381526020017f6f6c6100000000000000000000000000000000000000000000000000000000008152509050610aa9611416565b610b10610aea6040518060400160405280600581526020017f736869626100000000000000000000000000000000000000000000000000000081525061073c565b83604051602001610afc92919061251b565b604051602081830303815290604052610bcc565b604051602001610b21929190612163565b604051602081830303815290604052915050919050565b6000600560008473ffffffffffffffffffffffffffffffffffffffff1673ffffffffffffffffffffffffffffffffffffffff16815260200190815260200160002060008373ffffffffffffffffffffffffffffffffffffffff1673ffffffffffffffffffffffffffffffffffffffff16815260200190815260200160002060009054906101000a900460ff16905092915050565b6060600082511415610bef57604051806020016040528060008152509050610d4c565b6000604051806060016040528060408152602001612a376040913990506000600360028551610c1e91906122b4565b610c28919061259a565b6004610c3491906125cb565b90506000602082610c4591906122b4565b67ffffffffffffffff811115610c5e57610c5d611b5e565b5b6040519080825280601f01601f191660200182016040528015610c905781602001600182028036833780820191505090505b509050818152600183018586518101602084015b81831015610d0b576003830192508251603f8160121c1685015160f81b8252600182019150603f81600c1c1685015160f81b8252600182019150603f8160061c1685015160f81b8252600182019150603f811685015160f81b825260018201915050610ca4565b600389510660018114610d255760028114610d3557610d40565b613d3d60f01b6002830352610d40565b603d60f81b60018303525b50505050508093505050505b919050565b60007f01ffc9a7000000000000000000000000000000000000000000000000000000007bffffffffffffffffffffffffffffffffffffffffffffffffffffffff1916827bffffffffffffffffffffffffffffffffffffffffffffffffffffffff1916149050919050565b610dc4816113aa565b610e03576040517f08c379a0000000000000000000000000000000000000000000000000000000008152600401610dfa906121d3565b60405180910390fd5b50565b600033905090565b816004600083815260200190815260200160002060006101000a81548173ffffffffffffffffffffffffffffffffffffffff021916908373ffffffffffffffffffffffffffffffffffffffff160217905550808273ffffffffffffffffffffffffffffffffffffffff16610e8183610746565b73ffffffffffffffffffffffffffffffffffffffff167f8c5be1e5ebec7d5bd14f71427d1e84f3dd0314c0f7b2291e5b200ac8c7c3b92560405160405180910390a45050565b600080610ed383610746565b90508073ffffffffffffffffffffffffffffffffffffffff168473ffffffffffffffffffffffffffffffffffffffff161480610f155750610f148185610b38565b5b80610f5357508373ffffffffffffffffffffffffffffffffffffffff16610f3b846104cb565b73ffffffffffffffffffffffffffffffffffffffff16145b91505092915050565b8273ffffffffffffffffffffffffffffffffffffffff16610f7c82610746565b73ffffffffffffffffffffffffffffffffffffffff1614610fd2576040517f08c379a0000000000000000000000000000000000000000000000000000000008152600401610fc990612697565b60405180910390fd5b600073ffffffffffffffffffffffffffffffffffffffff168273ffffffffffffffffffffffffffffffffffffffff161415611042576040517f08c379a000000000000000000000000000000000000000000000000000000000815260040161103990612729565b60405180910390fd5b61104d838383611453565b611058600082610e0e565b6001600360008573ffffffffffffffffffffffffffffffffffffffff1673ffffffffffffffffffffffffffffffffffffffff16815260200190815260200160002060008282546110a89190612749565b925050819055506001600360008473ffffffffffffffffffffffffffffffffffffffff1673ffffffffffffffffffffffffffffffffffffffff16815260200190815260200160002060008282546110ff91906122b4565b92505081905550816002600083815260200190815260200160002060006101000a81548173ffffffffffffffffffffffffffffffffffffffff021916908373ffffffffffffffffffffffffffffffffffffffff160217905550808273ffffffffffffffffffffffffffffffffffffffff168473ffffffffffffffffffffffffffffffffffffffff167fddf252ad1be2c89b69c2b068fc378daa952ba7f163c4a11628f55a4df523b3ef60405160405180910390a46111be838383611458565b505050565b8173ffffffffffffffffffffffffffffffffffffffff168373ffffffffffffffffffffffffffffffffffffffff161415611232576040517f08c379a0000000000000000000000000000000000000000000000000000000008152600401611229906127c9565b60405180910390fd5b80600560008573ffffffffffffffffffffffffffffffffffffffff1673ffffffffffffffffffffffffffffffffffffffff16815260200190815260200160002060008473ffffffffffffffffffffffffffffffffffffffff1673ffffffffffffffffffffffffffffffffffffffff16815260200190815260200160002060006101000a81548160ff0219169083151502179055508173ffffffffffffffffffffffffffffffffffffffff168373ffffffffffffffffffffffffffffffffffffffff167f17307eab39ab6107e8899845ad3d59bd9653f200f220920489ca2b5937696c31836040516113239190611900565b60405180910390a3505050565b61133b848484610f5c565b6113478484848461145d565b611386576040517f08c379a000000000000000000000000000000000000000000000000000000000815260040161137d9061285b565b60405180910390fd5b50505050565b6113a68282604051806020016040528060008152506115f4565b5050565b60008073ffffffffffffffffffffffffffffffffffffffff166002600084815260200190815260200160002060009054906101000a900473ffffffffffffffffffffffffffffffffffffffff1673ffffffffffffffffffffffffffffffffffffffff1614159050919050565b60606040518060400160405280601d81526020017f646174613a6170706c69636174696f6e2f6a736f6e3b6261736536342c000000815250905090565b505050565b505050565b600061147e8473ffffffffffffffffffffffffffffffffffffffff1661164f565b156115e7578373ffffffffffffffffffffffffffffffffffffffff1663150b7a026114a7610e06565b8786866040518563ffffffff1660e01b81526004016114c994939291906128d0565b602060405180830381600087803b1580156114e357600080fd5b505af192505050801561151457506040513d601f19601f820116820180604052508101906115119190612931565b60015b611597573d8060008114611544576040519150601f19603f3d011682016040523d82523d6000602084013e611549565b606091505b5060008151141561158f576040517f08c379a00000000000000000000000000000000000000000000000000000000081526004016115869061285b565b60405180910390fd5b805181602001fd5b63150b7a0260e01b7bffffffffffffffffffffffffffffffffffffffffffffffffffffffff1916817bffffffffffffffffffffffffffffffffffffffffffffffffffffffff1916149150506115ec565b600190505b949350505050565b6115fe8383611672565b61160b600084848461145d565b61164a576040517f08c379a00000000000000000000000000000000000000000000000000000000081526004016116419061285b565b60405180910390fd5b505050565b6000808273ffffffffffffffffffffffffffffffffffffffff163b119050919050565b600073ffffffffffffffffffffffffffffffffffffffff168273ffffffffffffffffffffffffffffffffffffffff1614156116e2576040517f08c379a00000000000000000000000000000000000000000000000000000000081526004016116d9906129aa565b60405180910390fd5b6116eb816113aa565b1561172b576040517f08c379a000000000000000000000000000000000000000000000000000000000815260040161172290612a16565b60405180910390fd5b61173760008383611453565b6001600360008473ffffffffffffffffffffffffffffffffffffffff1673ffffffffffffffffffffffffffffffffffffffff168152602001908152602001600020600082825461178791906122b4565b92505081905550816002600083815260200190815260200160002060006101000a81548173ffffffffffffffffffffffffffffffffffffffff021916908373ffffffffffffffffffffffffffffffffffffffff160217905550808273ffffffffffffffffffffffffffffffffffffffff16600073ffffffffffffffffffffffffffffffffffffffff167fddf252ad1be2c89b69c2b068fc378daa952ba7f163c4a11628f55a4df523b3ef60405160405180910390a461184860008383611458565b5050565b6000604051905090565b600080fd5b600080fd5b60007fffffffff0000000000000000000000000000000000000000000000000000000082169050919050565b61189581611860565b81146118a057600080fd5b50565b6000813590506118b28161188c565b92915050565b6000602082840312156118ce576118cd611856565b5b60006118dc848285016118a3565b91505092915050565b60008115159050919050565b6118fa816118e5565b82525050565b600060208201905061191560008301846118f1565b92915050565b600081519050919050565b600082825260208201905092915050565b60005b8381101561195557808201518184015260208101905061193a565b83811115611964576000848401525b50505050565b6000601f19601f8301169050919050565b60006119868261191b565b6119908185611926565b93506119a0818560208601611937565b6119a98161196a565b840191505092915050565b600060208201905081810360008301526119ce818461197b565b905092915050565b6000819050919050565b6119e9816119d6565b81146119f457600080fd5b50565b600081359050611a06816119e0565b92915050565b600060208284031215611a2257611a21611856565b5b6000611a30848285016119f7565b91505092915050565b600073ffffffffffffffffffffffffffffffffffffffff82169050919050565b6000611a6482611a39565b9050919050565b611a7481611a59565b82525050565b6000602082019050611a8f6000830184611a6b565b92915050565b611a9e81611a59565b8114611aa957600080fd5b50565b600081359050611abb81611a95565b92915050565b60008060408385031215611ad857611ad7611856565b5b6000611ae685828601611aac565b9250506020611af7858286016119f7565b9150509250929050565b600080600060608486031215611b1a57611b19611856565b5b6000611b2886828701611aac565b9350506020611b3986828701611aac565b9250506040611b4a868287016119f7565b9150509250925092565b600080fd5b600080fd5b7f4e487b7100000000000000000000000000000000000000000000000000000000600052604160045260246000fd5b611b968261196a565b810181811067ffffffffffffffff82111715611bb557611bb4611b5e565b5b80604052505050565b6000611bc861184c565b9050611bd48282611b8d565b919050565b600067ffffffffffffffff821115611bf457611bf3611b5e565b5b611bfd8261196a565b9050602081019050919050565b82818337600083830152505050565b6000611c2c611c2784611bd9565b611bbe565b905082815260208101848484011115611c4857611c47611b59565b5b611c53848285611c0a565b509392505050565b600082601f830112611c7057611c6f611b54565b5b8135611c80848260208601611c19565b91505092915050565b600060208284031215611c9f57611c9e611856565b5b600082013567ffffffffffffffff811115611cbd57611cbc61185b565b5b611cc984828501611c5b565b91505092915050565b600060208284031215611ce857611ce7611856565b5b6000611cf684828501611aac565b91505092915050565b611d08816119d6565b82525050565b6000602082019050611d236000830184611cff565b92915050565b611d32816118e5565b8114611d3d57600080fd5b50565b600081359050611d4f81611d29565b92915050565b60008060408385031215611d6c57611d6b611856565b5b6000611d7a85828601611aac565b9250506020611d8b85828601611d40565b9150509250929050565b600067ffffffffffffffff821115611db057611daf611b5e565b5b611db98261196a565b9050602081019050919050565b6000611dd9611dd484611d95565b611bbe565b905082815260208101848484011115611df557611df4611b59565b5b611e00848285611c0a565b509392505050565b600082601f830112611e1d57611e1c611b54565b5b8135611e2d848260208601611dc6565b91505092915050565b60008060008060808587031215611e5057611e4f611856565b5b6000611e5e87828801611aac565b9450506020611e6f87828801611aac565b9350506040611e80878288016119f7565b925050606085013567ffffffffffffffff811115611ea157611ea061185b565b5b611ead87828801611e08565b91505092959194509250565b60008060408385031215611ed057611ecf611856565b5b6000611ede85828601611aac565b9250506020611eef85828601611aac565b9150509250929050565b7f4e487b7100000000000000000000000000000000000000000000000000000000600052602260045260246000fd5b60006002820490506001821680611f4057607f821691505b60208210811415611f5457611f53611ef9565b5b50919050565b7f4552433732313a20617070726f76616c20746f2063757272656e74206f776e6560008201527f7200000000000000000000000000000000000000000000000000000000000000602082015250565b6000611fb6602183611926565b9150611fc182611f5a565b604082019050919050565b60006020820190508181036000830152611fe581611fa9565b9050919050565b7f4552433732313a20617070726f76652063616c6c6572206973206e6f7420746f60008201527f6b656e206f776e6572206e6f7220617070726f76656420666f7220616c6c0000602082015250565b6000612048603e83611926565b915061205382611fec565b604082019050919050565b600060208201905081810360008301526120778161203b565b9050919050565b7f4552433732313a2063616c6c6572206973206e6f7420746f6b656e206f776e6560008201527f72206e6f7220617070726f766564000000000000000000000000000000000000602082015250565b60006120da602e83611926565b91506120e58261207e565b604082019050919050565b60006020820190508181036000830152612109816120cd565b9050919050565b600081905092915050565b60006121268261191b565b6121308185612110565b9350612140818560208601611937565b80840191505092915050565b6000612158828461211b565b915081905092915050565b600061216f828561211b565b915061217b828461211b565b91508190509392505050565b7f4552433732313a20696e76616c696420746f6b656e2049440000000000000000600082015250565b60006121bd601883611926565b91506121c882612187565b602082019050919050565b600060208201905081810360008301526121ec816121b0565b9050919050565b7f4552433732313a2061646472657373207a65726f206973206e6f74206120766160008201527f6c6964206f776e65720000000000000000000000000000000000000000000000602082015250565b600061224f602983611926565b915061225a826121f3565b604082019050919050565b6000602082019050818103600083015261227e81612242565b9050919050565b7f4e487b7100000000000000000000000000000000000000000000000000000000600052601160045260246000fd5b60006122bf826119d6565b91506122ca836119d6565b9250827fffffffffffffffffffffffffffffffffffffffffffffffffffffffffffffffff038211156122ff576122fe612285565b5b828201905092915050565b600060408201905061231f6000830185611cff565b61232c6020830184611a6b565b9392505050565b7f55524920517565727920666f72206e6f6e6578697374656e7420746f6b656e00600082015250565b6000612369601f83611926565b915061237482612333565b602082019050919050565b600060208201905081810360008301526123988161235c565b9050919050565b7f7b226e616d65223a220000000000000000000000000000000000000000000000600082015250565b60006123d5600983612110565b91506123e08261239f565b600982019050919050565b7f222c20226465736372697074696f6e223a226120637574652073686962612d6960008201527f6e75204e465420222c0000000000000000000000000000000000000000000000602082015250565b6000612447602983612110565b9150612452826123eb565b602982019050919050565b7f2261747472696275746573223a205b7b2274726169745f74797065223a20226360008201527f757465222c202276616c7565223a2039357d5d2c2022696d616765223a220000602082015250565b60006124b9603e83612110565b91506124c48261245d565b603e82019050919050565b7f227d000000000000000000000000000000000000000000000000000000000000600082015250565b6000612505600283612110565b9150612510826124cf565b600282019050919050565b6000612526826123c8565b9150612532828561211b565b915061253d8261243a565b9150612548826124ac565b9150612554828461211b565b915061255f826124f8565b91508190509392505050565b7f4e487b7100000000000000000000000000000000000000000000000000000000600052601260045260246000fd5b60006125a5826119d6565b91506125b0836119d6565b9250826125c0576125bf61256b565b5b828204905092915050565b60006125d6826119d6565b91506125e1836119d6565b9250817fffffffffffffffffffffffffffffffffffffffffffffffffffffffffffffffff048311821515161561261a57612619612285565b5b828202905092915050565b7f4552433732313a207472616e736665722066726f6d20696e636f72726563742060008201527f6f776e6572000000000000000000000000000000000000000000000000000000602082015250565b6000612681602583611926565b915061268c82612625565b604082019050919050565b600060208201905081810360008301526126b081612674565b9050919050565b7f4552433732313a207472616e7366657220746f20746865207a65726f2061646460008201527f7265737300000000000000000000000000000000000000000000000000000000602082015250565b6000612713602483611926565b915061271e826126b7565b604082019050919050565b6000602082019050818103600083015261274281612706565b9050919050565b6000612754826119d6565b915061275f836119d6565b92508282101561277257612771612285565b5b828203905092915050565b7f4552433732313a20617070726f766520746f2063616c6c657200000000000000600082015250565b60006127b3601983611926565b91506127be8261277d565b602082019050919050565b600060208201905081810360008301526127e2816127a6565b9050919050565b7f4552433732313a207472616e7366657220746f206e6f6e20455243373231526560008201527f63656976657220696d706c656d656e7465720000000000000000000000000000602082015250565b6000612845603283611926565b9150612850826127e9565b604082019050919050565b6000602082019050818103600083015261287481612838565b9050919050565b600081519050919050565b600082825260208201905092915050565b60006128a28261287b565b6128ac8185612886565b93506128bc818560208601611937565b6128c58161196a565b840191505092915050565b60006080820190506128e56000830187611a6b565b6128f26020830186611a6b565b6128ff6040830185611cff565b81810360608301526129118184612897565b905095945050505050565b60008151905061292b8161188c565b92915050565b60006020828403121561294757612946611856565b5b60006129558482850161291c565b91505092915050565b7f4552433732313a206d696e7420746f20746865207a65726f2061646472657373600082015250565b6000612994602083611926565b915061299f8261295e565b602082019050919050565b600060208201905081810360008301526129c381612987565b9050919050565b7f4552433732313a20746f6b656e20616c7265616479206d696e74656400000000600082015250565b6000612a00601c83611926565b9150612a0b826129ca565b602082019050919050565b60006020820190508181036000830152612a2f816129f3565b905091905056fe4142434445464748494a4b4c4d4e4f505152535455565758595a6162636465666768696a6b6c6d6e6f707172737475767778797a303132333435363738392b2fa26469706673582212201a5e36f4182fde612fc519e455c9206c0a7bdfddc51c8fabbae1ac0e11a98e5d64736f6c634300080900334142434445464748494a4b4c4d4e4f505152535455565758595a6162636465666768696a6b6c6d6e6f707172737475767778797a303132333435363738392b2f",
  "devdoc": {
    "kind": "dev",
    "methods": {
      "approve(address,uint256)": {
        "details": "See {IERC721-approve}."
      },
      "balanceOf(address)": {
        "details": "See {IERC721-balanceOf}."
      },
      "getApproved(uint256)": {
        "details": "See {IERC721-getApproved}."
      },
      "isApprovedForAll(address,address)": {
        "details": "See {IERC721-isApprovedForAll}."
      },
      "name()": {
        "details": "See {IERC721Metadata-name}."
      },
      "ownerOf(uint256)": {
        "details": "See {IERC721-ownerOf}."
      },
      "safeTransferFrom(address,address,uint256)": {
        "details": "See {IERC721-safeTransferFrom}."
      },
      "safeTransferFrom(address,address,uint256,bytes)": {
        "details": "See {IERC721-safeTransferFrom}."
      },
      "setApprovalForAll(address,bool)": {
        "details": "See {IERC721-setApprovalForAll}."
      },
      "supportsInterface(bytes4)": {
        "details": "See {IERC165-supportsInterface}."
      },
      "symbol()": {
        "details": "See {IERC721Metadata-symbol}."
      },
      "tokenURI(uint256)": {
        "details": "See {IERC721Metadata-tokenURI}."
      },
      "transferFrom(address,address,uint256)": {
        "details": "See {IERC721-transferFrom}."
      }
    },
    "version": 1
  },
  "userdoc": {
    "kind": "user",
    "methods": {},
    "version": 1
  },
  "storageLayout": {
    "storage": [
      {
        "astId": 25,
        "contract": "contracts/SvgNft.sol:SvgNft",
        "label": "_name",
        "offset": 0,
        "slot": "0",
        "type": "t_string_storage"
      },
      {
        "astId": 27,
        "contract": "contracts/SvgNft.sol:SvgNft",
        "label": "_symbol",
        "offset": 0,
        "slot": "1",
        "type": "t_string_storage"
      },
      {
        "astId": 31,
        "contract": "contracts/SvgNft.sol:SvgNft",
        "label": "_owners",
        "offset": 0,
        "slot": "2",
        "type": "t_mapping(t_uint256,t_address)"
      },
      {
        "astId": 35,
        "contract": "contracts/SvgNft.sol:SvgNft",
        "label": "_balances",
        "offset": 0,
        "slot": "3",
        "type": "t_mapping(t_address,t_uint256)"
      },
      {
        "astId": 39,
        "contract": "contracts/SvgNft.sol:SvgNft",
        "label": "_tokenApprovals",
        "offset": 0,
        "slot": "4",
        "type": "t_mapping(t_uint256,t_address)"
      },
      {
        "astId": 45,
        "contract": "contracts/SvgNft.sol:SvgNft",
        "label": "_operatorApprovals",
        "offset": 0,
        "slot": "5",
        "type": "t_mapping(t_address,t_mapping(t_address,t_bool))"
      },
      {
        "astId": 1664,
        "contract": "contracts/SvgNft.sol:SvgNft",
        "label": "s_tokenCounter",
        "offset": 0,
        "slot": "6",
        "type": "t_uint256"
      },
      {
        "astId": 1666,
        "contract": "contracts/SvgNft.sol:SvgNft",
        "label": "s_svgImgURI",
        "offset": 0,
        "slot": "7",
        "type": "t_string_storage"
      }
    ],
    "types": {
      "t_address": {
        "encoding": "inplace",
        "label": "address",
        "numberOfBytes": "20"
      },
      "t_bool": {
        "encoding": "inplace",
        "label": "bool",
        "numberOfBytes": "1"
      },
      "t_mapping(t_address,t_bool)": {
        "encoding": "mapping",
        "key": "t_address",
        "label": "mapping(address => bool)",
        "numberOfBytes": "32",
        "value": "t_bool"
      },
      "t_mapping(t_address,t_mapping(t_address,t_bool))": {
        "encoding": "mapping",
        "key": "t_address",
        "label": "mapping(address => mapping(address => bool))",
        "numberOfBytes": "32",
        "value": "t_mapping(t_address,t_bool)"
      },
      "t_mapping(t_address,t_uint256)": {
        "encoding": "mapping",
        "key": "t_address",
        "label": "mapping(address => uint256)",
        "numberOfBytes": "32",
        "value": "t_uint256"
      },
      "t_mapping(t_uint256,t_address)": {
        "encoding": "mapping",
        "key": "t_uint256",
        "label": "mapping(uint256 => address)",
        "numberOfBytes": "32",
        "value": "t_address"
      },
      "t_string_storage": {
        "encoding": "bytes",
        "label": "string",
        "numberOfBytes": "32"
      },
      "t_uint256": {
        "encoding": "inplace",
        "label": "uint256",
        "numberOfBytes": "32"
      }
    }
  }
}