{
  "address": "0xa2cD069Ef7C1564bFc5264B4D6c60c989927eB55",
  "abi": [
    {
      "inputs": [],
      "stateMutability": "nonpayable",
      "type": "constructor"
    },
    {
      "stateMutability": "payable",
      "type": "fallback"
    },
    {
      "inputs": [],
      "name": "MINIMUM_USD",
      "outputs": [
        {
          "internalType": "uint256",
          "name": "",
          "type": "uint256"
        }
      ],
      "stateMutability": "view",
      "type": "function"
    },
    {
      "inputs": [],
      "name": "balance",
      "outputs": [
        {
          "internalType": "uint256",
          "name": "",
          "type": "uint256"
        }
      ],
      "stateMutability": "view",
      "type": "function"
    },
    {
      "inputs": [],
      "name": "fund",
      "outputs": [],
      "stateMutability": "payable",
      "type": "function"
    },
    {
      "inputs": [
        {
          "internalType": "address",
          "name": "",
          "type": "address"
        }
      ],
      "name": "funders",
      "outputs": [
        {
          "internalType": "uint256",
          "name": "",
          "type": "uint256"
        }
      ],
      "stateMutability": "view",
      "type": "function"
    },
    {
      "inputs": [],
      "name": "i_owner",
      "outputs": [
        {
          "internalType": "address",
          "name": "",
          "type": "address"
        }
      ],
      "stateMutability": "view",
      "type": "function"
    },
    {
      "inputs": [],
      "name": "withdraw",
      "outputs": [],
      "stateMutability": "payable",
      "type": "function"
    },
    {
      "stateMutability": "payable",
      "type": "receive"
    }
  ],
  "transactionHash": "0xb6eb876720ad08aab392f04d33586b0cce7e0ecec3348817b74202f88d0e6330",
  "args": [],
  "numDeployments": 1,
  "solcInputHash": "2c0d5fef2d1b30376fed8d27a8fb3866",
  "bytecode": "0x60a06040524760015534801561001457600080fd5b503373ffffffffffffffffffffffffffffffffffffffff1660808173ffffffffffffffffffffffffffffffffffffffff1660601b8152505060805160601c610b286100716000396000818161020801526103ac0152610b286000f3fe6080604052600436106100595760003560e01c8063031b3677146100725780633ccfd60b146100af5780636b69a592146100b9578063b60d4288146100e4578063b69ef8a8146100ee578063dba6335f1461011957610068565b3661006857610066610144565b005b610070610144565b005b34801561007e57600080fd5b5061009960048036038101906100949190610523565b6101ee565b6040516100a69190610569565b60405180910390f35b6100b7610206565b005b3480156100c557600080fd5b506100ce610398565b6040516100db9190610569565b60405180910390f35b6100ec610144565b005b3480156100fa57600080fd5b506101036103a4565b6040516101109190610569565b60405180910390f35b34801561012557600080fd5b5061012e6103aa565b60405161013b9190610593565b60405180910390f35b678ac7230489e80000610156346103ce565b1015610197576040517f08c379a000000000000000000000000000000000000000000000000000000000815260040161018e9061060b565b60405180910390fd5b346000803373ffffffffffffffffffffffffffffffffffffffff1673ffffffffffffffffffffffffffffffffffffffff16815260200190815260200160002060008282546101e5919061065a565b92505081905550565b60006020528060005260406000206000915090505481565b7f000000000000000000000000000000000000000000000000000000000000000073ffffffffffffffffffffffffffffffffffffffff163373ffffffffffffffffffffffffffffffffffffffff1614610294576040517f08c379a000000000000000000000000000000000000000000000000000000000815260040161028b906106fc565b60405180910390fd5b346000803373ffffffffffffffffffffffffffffffffffffffff1673ffffffffffffffffffffffffffffffffffffffff16815260200190815260200160002060008282546102e2919061071c565b9250508190555060003373ffffffffffffffffffffffffffffffffffffffff164760405161030f90610781565b60006040518083038185875af1925050503d806000811461034c576040519150601f19603f3d011682016040523d82523d6000602084013e610351565b606091505b5050905080610395576040517f08c379a000000000000000000000000000000000000000000000000000000000815260040161038c906107e2565b60405180910390fd5b50565b678ac7230489e8000081565b60015481565b7f000000000000000000000000000000000000000000000000000000000000000081565b6000806103d9610408565b90506000670de0b6b3a764000084836103f29190610802565b6103fc919061088b565b90508092505050919050565b600080738a753747a1fa494ec906ce90e9f37563a8af630e905060008173ffffffffffffffffffffffffffffffffffffffff1663feaf968c6040518163ffffffff1660e01b815260040160a06040518083038186803b15801561046a57600080fd5b505afa15801561047e573d6000803e3d6000fd5b505050506040513d601f19601f820116820180604052508101906104a29190610960565b5050509150506402540be400816104b991906109db565b9250505090565b600080fd5b600073ffffffffffffffffffffffffffffffffffffffff82169050919050565b60006104f0826104c5565b9050919050565b610500816104e5565b811461050b57600080fd5b50565b60008135905061051d816104f7565b92915050565b600060208284031215610539576105386104c0565b5b60006105478482850161050e565b91505092915050565b6000819050919050565b61056381610550565b82525050565b600060208201905061057e600083018461055a565b92915050565b61058d816104e5565b82525050565b60006020820190506105a86000830184610584565b92915050565b600082825260208201905092915050565b7f596f75206e65656420746f2073656e64206d6f72650000000000000000000000600082015250565b60006105f56015836105ae565b9150610600826105bf565b602082019050919050565b60006020820190508181036000830152610624816105e8565b9050919050565b7f4e487b7100000000000000000000000000000000000000000000000000000000600052601160045260246000fd5b600061066582610550565b915061067083610550565b9250827fffffffffffffffffffffffffffffffffffffffffffffffffffffffffffffffff038211156106a5576106a461062b565b5b828201905092915050565b7f596f752063616e27742077697468647261770000000000000000000000000000600082015250565b60006106e66012836105ae565b91506106f1826106b0565b602082019050919050565b60006020820190508181036000830152610715816106d9565b9050919050565b600061072782610550565b915061073283610550565b9250828210156107455761074461062b565b5b828203905092915050565b600081905092915050565b50565b600061076b600083610750565b91506107768261075b565b600082019050919050565b600061078c8261075e565b9150819050919050565b7f43616c6c206661696c6564000000000000000000000000000000000000000000600082015250565b60006107cc600b836105ae565b91506107d782610796565b602082019050919050565b600060208201905081810360008301526107fb816107bf565b9050919050565b600061080d82610550565b915061081883610550565b9250817fffffffffffffffffffffffffffffffffffffffffffffffffffffffffffffffff04831182151516156108515761085061062b565b5b828202905092915050565b7f4e487b7100000000000000000000000000000000000000000000000000000000600052601260045260246000fd5b600061089682610550565b91506108a183610550565b9250826108b1576108b061085c565b5b828204905092915050565b600069ffffffffffffffffffff82169050919050565b6108db816108bc565b81146108e657600080fd5b50565b6000815190506108f8816108d2565b92915050565b6000819050919050565b610911816108fe565b811461091c57600080fd5b50565b60008151905061092e81610908565b92915050565b61093d81610550565b811461094857600080fd5b50565b60008151905061095a81610934565b92915050565b600080600080600060a0868803121561097c5761097b6104c0565b5b600061098a888289016108e9565b955050602061099b8882890161091f565b94505060406109ac8882890161094b565b93505060606109bd8882890161094b565b92505060806109ce888289016108e9565b9150509295509295909350565b60006109e6826108fe565b91506109f1836108fe565b9250827f7fffffffffffffffffffffffffffffffffffffffffffffffffffffffffffffff0482116000841360008413161615610a3057610a2f61062b565b5b817f80000000000000000000000000000000000000000000000000000000000000000583126000841260008413161615610a6d57610a6c61062b565b5b827f80000000000000000000000000000000000000000000000000000000000000000582126000841360008412161615610aaa57610aa961062b565b5b827f7fffffffffffffffffffffffffffffffffffffffffffffffffffffffffffffff0582126000841260008412161615610ae757610ae661062b565b5b82820290509291505056fea26469706673582212200736f03f22cf1a7ad0a4b6e98eb724847c87c236bfda4cd84156dcd26b901a6664736f6c63430008080033",
  "devdoc": {
    "kind": "dev",
    "methods": {},
    "version": 1
  },
  "userdoc": {
    "kind": "user",
    "methods": {},
    "version": 1
  },
  "storageLayout": {
    "storage": [
      {
        "astId": 55,
        "contract": "contracts/FundMe.sol:FundMe",
        "label": "funders",
        "offset": 0,
        "slot": "0",
        "type": "t_mapping(t_address,t_uint256)"
      },
      {
        "astId": 71,
        "contract": "contracts/FundMe.sol:FundMe",
        "label": "balance",
        "offset": 0,
        "slot": "1",
        "type": "t_uint256"
      }
    ],
    "types": {
      "t_address": {
        "encoding": "inplace",
        "label": "address",
        "numberOfBytes": "20"
      },
      "t_mapping(t_address,t_uint256)": {
        "encoding": "mapping",
        "key": "t_address",
        "label": "mapping(address => uint256)",
        "numberOfBytes": "32",
        "value": "t_uint256"
      },
      "t_uint256": {
        "encoding": "inplace",
        "label": "uint256",
        "numberOfBytes": "32"
      }
    }
  }
}