{
  "address": "0xe7f1725E7734CE288F8367e1Bb143E90bb3F0512",
  "abi": [
    {
      "inputs": [
        {
          "internalType": "address",
          "name": "priceFeedAddress",
          "type": "address"
        }
      ],
      "stateMutability": "nonpayable",
      "type": "constructor"
    },
    {
      "inputs": [],
      "name": "NotOwner",
      "type": "error"
    },
    {
      "stateMutability": "payable",
      "type": "fallback"
    },
    {
      "inputs": [],
      "name": "MINIMUM_USD",
      "outputs": [
        {
          "internalType": "uint256",
          "name": "",
          "type": "uint256"
        }
      ],
      "stateMutability": "view",
      "type": "function"
    },
    {
      "inputs": [
        {
          "internalType": "address",
          "name": "",
          "type": "address"
        }
      ],
      "name": "addressToAmountFunded",
      "outputs": [
        {
          "internalType": "uint256",
          "name": "",
          "type": "uint256"
        }
      ],
      "stateMutability": "view",
      "type": "function"
    },
    {
      "inputs": [],
      "name": "fund",
      "outputs": [],
      "stateMutability": "payable",
      "type": "function"
    },
    {
      "inputs": [],
      "name": "owner",
      "outputs": [
        {
          "internalType": "address",
          "name": "",
          "type": "address"
        }
      ],
      "stateMutability": "view",
      "type": "function"
    },
    {
      "inputs": [],
      "name": "priceFeed",
      "outputs": [
        {
          "internalType": "contract AggregatorV3Interface",
          "name": "",
          "type": "address"
        }
      ],
      "stateMutability": "view",
      "type": "function"
    },
    {
      "inputs": [],
      "name": "withdraw",
      "outputs": [],
      "stateMutability": "payable",
      "type": "function"
    },
    {
      "stateMutability": "payable",
      "type": "receive"
    }
  ],
  "transactionHash": "0x971038b6021766e8a1b07b11b44fa2c47095833b3ca56cb472a2eee01557bd40",
  "args": [
    "0x5FbDB2315678afecb367f032d93F642f64180aa3"
  ],
  "numDeployments": 1,
  "solcInputHash": "4998ee495c88fe9509e5ce2130bf46d0",
  "bytecode": "0x60a060405234801561001057600080fd5b50604051610cd3380380610cd383398181016040528101906100329190610113565b80600160006101000a81548173ffffffffffffffffffffffffffffffffffffffff021916908373ffffffffffffffffffffffffffffffffffffffff1602179055503373ffffffffffffffffffffffffffffffffffffffff1660808173ffffffffffffffffffffffffffffffffffffffff1660601b8152505050610140565b600080fd5b600073ffffffffffffffffffffffffffffffffffffffff82169050919050565b60006100e0826100b5565b9050919050565b6100f0816100d5565b81146100fb57600080fd5b50565b60008151905061010d816100e7565b92915050565b600060208284031215610129576101286100b0565b5b6000610137848285016100fe565b91505092915050565b60805160601c610b60610173600039600081816101ca0152818161023d015281816102c701526104200152610b606000f3fe6080604052600436106100595760003560e01c80633ccfd60b146100725780633e47d6f31461007c5780636b69a592146100b9578063741bef1a146100e45780638da5cb5b1461010f578063b60d42881461013a57610068565b3661006857610066610144565b005b610070610144565b005b61007a61023b565b005b34801561008857600080fd5b506100a3600480360381019061009e9190610581565b6103d3565b6040516100b091906105c7565b60405180910390f35b3480156100c557600080fd5b506100ce6103eb565b6040516100db91906105c7565b60405180910390f35b3480156100f057600080fd5b506100f96103f8565b6040516101069190610641565b60405180910390f35b34801561011b57600080fd5b5061012461041e565b604051610131919061066b565b60405180910390f35b610142610144565b005b6802b5e3af16b1880000610183600160009054906101000a900473ffffffffffffffffffffffffffffffffffffffff163461044290919063ffffffff16565b10156101c4576040517f08c379a00000000000000000000000000000000000000000000000000000000081526004016101bb906106e3565b60405180910390fd5b346000807f000000000000000000000000000000000000000000000000000000000000000073ffffffffffffffffffffffffffffffffffffffff1673ffffffffffffffffffffffffffffffffffffffff16815260200190815260200160002060008282546102329190610732565b92505081905550565b7f000000000000000000000000000000000000000000000000000000000000000073ffffffffffffffffffffffffffffffffffffffff163373ffffffffffffffffffffffffffffffffffffffff16146102c0576040517f30cd747100000000000000000000000000000000000000000000000000000000815260040160405180910390fd5b60008060007f000000000000000000000000000000000000000000000000000000000000000073ffffffffffffffffffffffffffffffffffffffff1673ffffffffffffffffffffffffffffffffffffffff1681526020019081526020016000208190555060003373ffffffffffffffffffffffffffffffffffffffff164760405161034a906107b9565b60006040518083038185875af1925050503d8060008114610387576040519150601f19603f3d011682016040523d82523d6000602084013e61038c565b606091505b50509050806103d0576040517f08c379a00000000000000000000000000000000000000000000000000000000081526004016103c79061081a565b60405180910390fd5b50565b60006020528060005260406000206000915090505481565b6802b5e3af16b188000081565b600160009054906101000a900473ffffffffffffffffffffffffffffffffffffffff1681565b7f000000000000000000000000000000000000000000000000000000000000000081565b60008061044e8361047e565b90506000670de0b6b3a76400008583610467919061083a565b61047191906108c3565b9050809250505092915050565b6000808273ffffffffffffffffffffffffffffffffffffffff1663feaf968c6040518163ffffffff1660e01b815260040160a06040518083038186803b1580156104c757600080fd5b505afa1580156104db573d6000803e3d6000fd5b505050506040513d601f19601f820116820180604052508101906104ff9190610998565b5050509150506402540be400816105169190610a13565b915050919050565b600080fd5b600073ffffffffffffffffffffffffffffffffffffffff82169050919050565b600061054e82610523565b9050919050565b61055e81610543565b811461056957600080fd5b50565b60008135905061057b81610555565b92915050565b6000602082840312156105975761059661051e565b5b60006105a58482850161056c565b91505092915050565b6000819050919050565b6105c1816105ae565b82525050565b60006020820190506105dc60008301846105b8565b92915050565b6000819050919050565b60006106076106026105fd84610523565b6105e2565b610523565b9050919050565b6000610619826105ec565b9050919050565b600061062b8261060e565b9050919050565b61063b81610620565b82525050565b60006020820190506106566000830184610632565b92915050565b61066581610543565b82525050565b6000602082019050610680600083018461065c565b92915050565b600082825260208201905092915050565b7f4d6f726520455448210000000000000000000000000000000000000000000000600082015250565b60006106cd600983610686565b91506106d882610697565b602082019050919050565b600060208201905081810360008301526106fc816106c0565b9050919050565b7f4e487b7100000000000000000000000000000000000000000000000000000000600052601160045260246000fd5b600061073d826105ae565b9150610748836105ae565b9250827fffffffffffffffffffffffffffffffffffffffffffffffffffffffffffffffff0382111561077d5761077c610703565b5b828201905092915050565b600081905092915050565b50565b60006107a3600083610788565b91506107ae82610793565b600082019050919050565b60006107c482610796565b9150819050919050565b7f43616c6c206661696c6564000000000000000000000000000000000000000000600082015250565b6000610804600b83610686565b915061080f826107ce565b602082019050919050565b60006020820190508181036000830152610833816107f7565b9050919050565b6000610845826105ae565b9150610850836105ae565b9250817fffffffffffffffffffffffffffffffffffffffffffffffffffffffffffffffff048311821515161561088957610888610703565b5b828202905092915050565b7f4e487b7100000000000000000000000000000000000000000000000000000000600052601260045260246000fd5b60006108ce826105ae565b91506108d9836105ae565b9250826108e9576108e8610894565b5b828204905092915050565b600069ffffffffffffffffffff82169050919050565b610913816108f4565b811461091e57600080fd5b50565b6000815190506109308161090a565b92915050565b6000819050919050565b61094981610936565b811461095457600080fd5b50565b60008151905061096681610940565b92915050565b610975816105ae565b811461098057600080fd5b50565b6000815190506109928161096c565b92915050565b600080600080600060a086880312156109b4576109b361051e565b5b60006109c288828901610921565b95505060206109d388828901610957565b94505060406109e488828901610983565b93505060606109f588828901610983565b9250506080610a0688828901610921565b9150509295509295909350565b6000610a1e82610936565b9150610a2983610936565b9250827f7fffffffffffffffffffffffffffffffffffffffffffffffffffffffffffffff0482116000841360008413161615610a6857610a67610703565b5b817f80000000000000000000000000000000000000000000000000000000000000000583126000841260008413161615610aa557610aa4610703565b5b827f80000000000000000000000000000000000000000000000000000000000000000582126000841360008412161615610ae257610ae1610703565b5b827f7fffffffffffffffffffffffffffffffffffffffffffffffffffffffffffffff0582126000841260008412161615610b1f57610b1e610703565b5b82820290509291505056fea2646970667358221220fe64067d417116f844088258360163ba7716ec3c4df639c5a6c3b177e3e353fa64736f6c63430008080033",
  "devdoc": {
    "kind": "dev",
    "methods": {},
    "version": 1
  },
  "userdoc": {
    "kind": "user",
    "methods": {},
    "version": 1
  },
  "storageLayout": {
    "storage": [
      {
        "astId": 65,
        "contract": "contracts/FundMe.sol:FundMe",
        "label": "addressToAmountFunded",
        "offset": 0,
        "slot": "0",
        "type": "t_mapping(t_address,t_uint256)"
      },
      {
        "astId": 70,
        "contract": "contracts/FundMe.sol:FundMe",
        "label": "priceFeed",
        "offset": 0,
        "slot": "1",
        "type": "t_contract(AggregatorV3Interface)45"
      }
    ],
    "types": {
      "t_address": {
        "encoding": "inplace",
        "label": "address",
        "numberOfBytes": "20"
      },
      "t_contract(AggregatorV3Interface)45": {
        "encoding": "inplace",
        "label": "contract AggregatorV3Interface",
        "numberOfBytes": "20"
      },
      "t_mapping(t_address,t_uint256)": {
        "encoding": "mapping",
        "key": "t_address",
        "label": "mapping(address => uint256)",
        "numberOfBytes": "32",
        "value": "t_uint256"
      },
      "t_uint256": {
        "encoding": "inplace",
        "label": "uint256",
        "numberOfBytes": "32"
      }
    }
  }
}